{
  "_format": "hh-sol-artifact-1",
  "contractName": "SushiBar",
  "sourceName": "contracts/Sushi.sol",
  "abi": [
    {
      "inputs": [
        {
          "internalType": "contract IERC20",
          "name": "_sushi",
          "type": "address"
        }
      ],
      "stateMutability": "nonpayable",
      "type": "constructor"
    },
    {
      "anonymous": false,
      "inputs": [
        {
          "indexed": true,
          "internalType": "address",
          "name": "owner",
          "type": "address"
        },
        {
          "indexed": true,
          "internalType": "address",
          "name": "spender",
          "type": "address"
        },
        {
          "indexed": false,
          "internalType": "uint256",
          "name": "value",
          "type": "uint256"
        }
      ],
      "name": "Approval",
      "type": "event"
    },
    {
      "anonymous": false,
      "inputs": [
        {
          "indexed": true,
          "internalType": "address",
          "name": "from",
          "type": "address"
        },
        {
          "indexed": true,
          "internalType": "address",
          "name": "to",
          "type": "address"
        },
        {
          "indexed": false,
          "internalType": "uint256",
          "name": "value",
          "type": "uint256"
        }
      ],
      "name": "Transfer",
      "type": "event"
    },
    {
      "inputs": [
        {
          "internalType": "address",
          "name": "owner",
          "type": "address"
        },
        {
          "internalType": "address",
          "name": "spender",
          "type": "address"
        }
      ],
      "name": "allowance",
      "outputs": [
        {
          "internalType": "uint256",
          "name": "",
          "type": "uint256"
        }
      ],
      "stateMutability": "view",
      "type": "function"
    },
    {
      "inputs": [
        {
          "internalType": "address",
          "name": "spender",
          "type": "address"
        },
        {
          "internalType": "uint256",
          "name": "amount",
          "type": "uint256"
        }
      ],
      "name": "approve",
      "outputs": [
        {
          "internalType": "bool",
          "name": "",
          "type": "bool"
        }
      ],
      "stateMutability": "nonpayable",
      "type": "function"
    },
    {
      "inputs": [
        {
          "internalType": "address",
          "name": "account",
          "type": "address"
        }
      ],
      "name": "balanceOf",
      "outputs": [
        {
          "internalType": "uint256",
          "name": "",
          "type": "uint256"
        }
      ],
      "stateMutability": "view",
      "type": "function"
    },
    {
      "inputs": [],
      "name": "decimals",
      "outputs": [
        {
          "internalType": "uint8",
          "name": "",
          "type": "uint8"
        }
      ],
      "stateMutability": "view",
      "type": "function"
    },
    {
      "inputs": [
        {
          "internalType": "address",
          "name": "spender",
          "type": "address"
        },
        {
          "internalType": "uint256",
          "name": "subtractedValue",
          "type": "uint256"
        }
      ],
      "name": "decreaseAllowance",
      "outputs": [
        {
          "internalType": "bool",
          "name": "",
          "type": "bool"
        }
      ],
      "stateMutability": "nonpayable",
      "type": "function"
    },
    {
      "inputs": [
        {
          "internalType": "uint256",
          "name": "_amount",
          "type": "uint256"
        }
      ],
      "name": "enter",
      "outputs": [],
      "stateMutability": "nonpayable",
      "type": "function"
    },
    {
      "inputs": [
        {
          "internalType": "address",
          "name": "spender",
          "type": "address"
        },
        {
          "internalType": "uint256",
          "name": "addedValue",
          "type": "uint256"
        }
      ],
      "name": "increaseAllowance",
      "outputs": [
        {
          "internalType": "bool",
          "name": "",
          "type": "bool"
        }
      ],
      "stateMutability": "nonpayable",
      "type": "function"
    },
    {
      "inputs": [
        {
          "internalType": "uint256",
          "name": "_share",
          "type": "uint256"
        }
      ],
      "name": "leave",
      "outputs": [],
      "stateMutability": "nonpayable",
      "type": "function"
    },
    {
      "inputs": [],
      "name": "name",
      "outputs": [
        {
          "internalType": "string",
          "name": "",
          "type": "string"
        }
      ],
      "stateMutability": "view",
      "type": "function"
    },
    {
      "inputs": [],
      "name": "s",
      "outputs": [
        {
          "internalType": "uint256",
          "name": "",
          "type": "uint256"
        }
      ],
      "stateMutability": "view",
      "type": "function"
    },
    {
      "inputs": [],
      "name": "sushi",
      "outputs": [
        {
          "internalType": "contract IERC20",
          "name": "",
          "type": "address"
        }
      ],
      "stateMutability": "view",
      "type": "function"
    },
    {
      "inputs": [],
      "name": "symbol",
      "outputs": [
        {
          "internalType": "string",
          "name": "",
          "type": "string"
        }
      ],
      "stateMutability": "view",
      "type": "function"
    },
    {
      "inputs": [],
      "name": "totalSupply",
      "outputs": [
        {
          "internalType": "uint256",
          "name": "",
          "type": "uint256"
        }
      ],
      "stateMutability": "view",
      "type": "function"
    },
    {
      "inputs": [
        {
          "internalType": "address",
          "name": "recipient",
          "type": "address"
        },
        {
          "internalType": "uint256",
          "name": "amount",
          "type": "uint256"
        }
      ],
      "name": "transfer",
      "outputs": [
        {
          "internalType": "bool",
          "name": "",
          "type": "bool"
        }
      ],
      "stateMutability": "nonpayable",
      "type": "function"
    },
    {
      "inputs": [
        {
          "internalType": "address",
          "name": "sender",
          "type": "address"
        },
        {
          "internalType": "address",
          "name": "recipient",
          "type": "address"
        },
        {
          "internalType": "uint256",
          "name": "amount",
          "type": "uint256"
        }
      ],
      "name": "transferFrom",
      "outputs": [
        {
          "internalType": "bool",
          "name": "",
          "type": "bool"
        }
      ],
      "stateMutability": "nonpayable",
      "type": "function"
    }
  ],
  "bytecode": "0x608060405268015af1d78b58c400006008553480156200001e57600080fd5b5060405162002dda38038062002dda83398181016040528101906200004491906200020f565b6040518060400160405280600881526020017f53757368694261720000000000000000000000000000000000000000000000008152506040518060400160405280600681526020017f78535553484900000000000000000000000000000000000000000000000000008152508160039080519060200190620000c892919062000148565b508060049080519060200190620000e192919062000148565b506012600560006101000a81548160ff021916908360ff160217905550505080600560016101000a81548173ffffffffffffffffffffffffffffffffffffffff021916908373ffffffffffffffffffffffffffffffffffffffff1602179055505062000302565b828054620001569062000283565b90600052602060002090601f0160209004810192826200017a5760008555620001c6565b82601f106200019557805160ff1916838001178555620001c6565b82800160010185558215620001c6579182015b82811115620001c5578251825591602001919060010190620001a8565b5b509050620001d59190620001d9565b5090565b5b80821115620001f4576000816000905550600101620001da565b5090565b6000815190506200020981620002e8565b92915050565b6000602082840312156200022257600080fd5b60006200023284828501620001f8565b91505092915050565b6000620002488262000263565b9050919050565b60006200025c826200023b565b9050919050565b600073ffffffffffffffffffffffffffffffffffffffff82169050919050565b600060028204905060018216806200029c57607f821691505b60208210811415620002b357620002b2620002b9565b5b50919050565b7f4e487b7100000000000000000000000000000000000000000000000000000000600052602260045260246000fd5b620002f3816200024f565b8114620002ff57600080fd5b50565b612ac880620003126000396000f3fe608060405234801561001057600080fd5b50600436106100f55760003560e01c806367dfd4c911610097578063a457c2d711610066578063a457c2d71461028a578063a59f3e0c146102ba578063a9059cbb146102d6578063dd62ed3e14610306576100f5565b806367dfd4c91461020257806370a082311461021e57806386b714e21461024e57806395d89b411461026c576100f5565b806318160ddd116100d357806318160ddd1461016657806323b872dd14610184578063313ce567146101b457806339509351146101d2576100f5565b806306fdde03146100fa578063095ea7b3146101185780630a08790314610148575b600080fd5b610102610336565b60405161010f91906122d2565b60405180910390f35b610132600480360381019061012d9190611f65565b6103c8565b60405161013f919061229c565b60405180910390f35b6101506103e6565b60405161015d91906122b7565b60405180910390f35b61016e61040c565b60405161017b9190612454565b60405180910390f35b61019e60048036038101906101999190611f16565b610416565b6040516101ab919061229c565b60405180910390f35b6101bc6104ef565b6040516101c9919061246f565b60405180910390f35b6101ec60048036038101906101e79190611f65565b610506565b6040516101f9919061229c565b60405180910390f35b61021c60048036038101906102179190611fca565b6105b9565b005b61023860048036038101906102339190611eb1565b6110ac565b6040516102459190612454565b60405180910390f35b6102566110f4565b6040516102639190612454565b60405180910390f35b6102746110fa565b60405161028191906122d2565b60405180910390f35b6102a4600480360381019061029f9190611f65565b61118c565b6040516102b1919061229c565b60405180910390f35b6102d460048036038101906102cf9190611fca565b611259565b005b6102f060048036038101906102eb9190611f65565b6114f4565b6040516102fd919061229c565b60405180910390f35b610320600480360381019061031b9190611eda565b611512565b60405161032d9190612454565b60405180910390f35b60606003805461034590612667565b80601f016020809104026020016040519081016040528092919081815260200182805461037190612667565b80156103be5780601f10610393576101008083540402835291602001916103be565b820191906000526020600020905b8154815290600101906020018083116103a157829003601f168201915b5050505050905090565b60006103dc6103d5611599565b84846115a1565b6001905092915050565b600560019054906101000a900473ffffffffffffffffffffffffffffffffffffffff1681565b6000600254905090565b600061042384848461176c565b6104e48461042f611599565b6104df85604051806060016040528060288152602001612a4660289139600160008b73ffffffffffffffffffffffffffffffffffffffff1673ffffffffffffffffffffffffffffffffffffffff1681526020019081526020016000206000610495611599565b73ffffffffffffffffffffffffffffffffffffffff1673ffffffffffffffffffffffffffffffffffffffff16815260200190815260200160002054611a019092919063ffffffff16565b6115a1565b600190509392505050565b6000600560009054906101000a900460ff16905090565b60006105af610513611599565b846105aa8560016000610524611599565b73ffffffffffffffffffffffffffffffffffffffff1673ffffffffffffffffffffffffffffffffffffffff16815260200190815260200160002060008973ffffffffffffffffffffffffffffffffffffffff1673ffffffffffffffffffffffffffffffffffffffff16815260200190815260200160002054611a5f90919063ffffffff16565b6115a1565b6001905092915050565b60006105c3611599565b905060006105cf61040c565b90506000600660008473ffffffffffffffffffffffffffffffffffffffff1673ffffffffffffffffffffffffffffffffffffffff1681526020019081526020016000205490506000600760008573ffffffffffffffffffffffffffffffffffffffff1673ffffffffffffffffffffffffffffffffffffffff168152602001908152602001600020549050600080831161069d576040517f08c379a000000000000000000000000000000000000000000000000000000000815260040161069490612314565b60405180910390fd5b6202a30082426106ad9190612587565b116106ed576040517f08c379a00000000000000000000000000000000000000000000000000000000081526004016106e490612354565b60405180910390fd5b6202a30082426106fd9190612587565b11801561071757506205460082426107159190612587565b105b156110a45762054600824261072c9190612587565b1015801561074757506207e90082426107459190612587565b105b15610e51576207e900824261075c9190612587565b101580156107775750620a8c0082426107759190612587565b105b15610bfa57620a8c00824261078c9190612587565b106109a357828611156107d4576040517f08c379a00000000000000000000000000000000000000000000000000000000081526004016107cb90612394565b60405180910390fd5b83600560019054906101000a900473ffffffffffffffffffffffffffffffffffffffff1673ffffffffffffffffffffffffffffffffffffffff166370a08231306040518263ffffffff1660e01b81526004016108309190612221565b60206040518083038186803b15801561084857600080fd5b505afa15801561085c573d6000803e3d6000fd5b505050506040513d601f19601f820116820180604052508101906108809190611ff3565b8761088b919061252d565b61089591906124fc565b90506108a18587611abd565b600560019054906101000a900473ffffffffffffffffffffffffffffffffffffffff1673ffffffffffffffffffffffffffffffffffffffff1663a9059cbb86836040518363ffffffff1660e01b81526004016108fe929190612273565b602060405180830381600087803b15801561091857600080fd5b505af115801561092c573d6000803e3d6000fd5b505050506040513d601f19601f820116820180604052508101906109509190611fa1565b5085600660008773ffffffffffffffffffffffffffffffffffffffff1673ffffffffffffffffffffffffffffffffffffffff1681526020019081526020016000205461099c9190612587565b9250610bf5565b6000604b6064856109b491906124fc565b6109be919061252d565b905080871115610a03576040517f08c379a00000000000000000000000000000000000000000000000000000000081526004016109fa90612394565b60405180910390fd5b84600560019054906101000a900473ffffffffffffffffffffffffffffffffffffffff1673ffffffffffffffffffffffffffffffffffffffff166370a08231306040518263ffffffff1660e01b8152600401610a5f9190612221565b60206040518083038186803b158015610a7757600080fd5b505afa158015610a8b573d6000803e3d6000fd5b505050506040513d601f19601f82011682018060405250810190610aaf9190611ff3565b88610aba919061252d565b610ac491906124fc565b91506019606488610ad591906124fc565b610adf919061252d565b82610aea9190612587565b9150610af68688611abd565b600560019054906101000a900473ffffffffffffffffffffffffffffffffffffffff1673ffffffffffffffffffffffffffffffffffffffff1663a9059cbb87846040518363ffffffff1660e01b8152600401610b53929190612273565b602060405180830381600087803b158015610b6d57600080fd5b505af1158015610b81573d6000803e3d6000fd5b505050506040513d601f19601f82011682018060405250810190610ba59190611fa1565b5086600660008873ffffffffffffffffffffffffffffffffffffffff1673ffffffffffffffffffffffffffffffffffffffff16815260200190815260200160002054610bf19190612587565b9350505b610e4c565b60006032606485610c0b91906124fc565b610c15919061252d565b905080871115610c5a576040517f08c379a0000000000000000000000000000000000000000000000000000000008152600401610c5190612394565b60405180910390fd5b84600560019054906101000a900473ffffffffffffffffffffffffffffffffffffffff1673ffffffffffffffffffffffffffffffffffffffff166370a08231306040518263ffffffff1660e01b8152600401610cb69190612221565b60206040518083038186803b158015610cce57600080fd5b505afa158015610ce2573d6000803e3d6000fd5b505050506040513d601f19601f82011682018060405250810190610d069190611ff3565b88610d11919061252d565b610d1b91906124fc565b91506032606488610d2c91906124fc565b610d36919061252d565b82610d419190612587565b9150610d4d8688611abd565b600560019054906101000a900473ffffffffffffffffffffffffffffffffffffffff1673ffffffffffffffffffffffffffffffffffffffff1663a9059cbb87846040518363ffffffff1660e01b8152600401610daa929190612273565b602060405180830381600087803b158015610dc457600080fd5b505af1158015610dd8573d6000803e3d6000fd5b505050506040513d601f19601f82011682018060405250810190610dfc9190611fa1565b5086600660008873ffffffffffffffffffffffffffffffffffffffff1673ffffffffffffffffffffffffffffffffffffffff16815260200190815260200160002054610e489190612587565b9350505b6110a3565b60006019606485610e6291906124fc565b610e6c919061252d565b905080871115610eb1576040517f08c379a0000000000000000000000000000000000000000000000000000000008152600401610ea890612394565b60405180910390fd5b84600560019054906101000a900473ffffffffffffffffffffffffffffffffffffffff1673ffffffffffffffffffffffffffffffffffffffff166370a08231306040518263ffffffff1660e01b8152600401610f0d9190612221565b60206040518083038186803b158015610f2557600080fd5b505afa158015610f39573d6000803e3d6000fd5b505050506040513d601f19601f82011682018060405250810190610f5d9190611ff3565b88610f68919061252d565b610f7291906124fc565b9150604b606488610f8391906124fc565b610f8d919061252d565b82610f989190612587565b9150610fa48688611abd565b600560019054906101000a900473ffffffffffffffffffffffffffffffffffffffff1673ffffffffffffffffffffffffffffffffffffffff1663a9059cbb87846040518363ffffffff1660e01b8152600401611001929190612273565b602060405180830381600087803b15801561101b57600080fd5b505af115801561102f573d6000803e3d6000fd5b505050506040513d601f19601f820116820180604052508101906110539190611fa1565b5086600660008873ffffffffffffffffffffffffffffffffffffffff1673ffffffffffffffffffffffffffffffffffffffff1681526020019081526020016000205461109f9190612587565b9350505b5b505050505050565b60008060008373ffffffffffffffffffffffffffffffffffffffff1673ffffffffffffffffffffffffffffffffffffffff168152602001908152602001600020549050919050565b60085481565b60606004805461110990612667565b80601f016020809104026020016040519081016040528092919081815260200182805461113590612667565b80156111825780601f1061115757610100808354040283529160200191611182565b820191906000526020600020905b81548152906001019060200180831161116557829003601f168201915b5050505050905090565b600061124f611199611599565b8461124a85604051806060016040528060258152602001612a6e60259139600160006111c3611599565b73ffffffffffffffffffffffffffffffffffffffff1673ffffffffffffffffffffffffffffffffffffffff16815260200190815260200160002060008a73ffffffffffffffffffffffffffffffffffffffff1673ffffffffffffffffffffffffffffffffffffffff16815260200190815260200160002054611a019092919063ffffffff16565b6115a1565b6001905092915050565b6000611263611599565b90506000600560019054906101000a900473ffffffffffffffffffffffffffffffffffffffff1673ffffffffffffffffffffffffffffffffffffffff166370a08231306040518263ffffffff1660e01b81526004016112c29190612221565b60206040518083038186803b1580156112da57600080fd5b505afa1580156112ee573d6000803e3d6000fd5b505050506040513d601f19601f820116820180604052508101906113129190611ff3565b9050600061131e61040c565b9050600081148061132f5750600082145b156113435761133e8385611c6b565b61136a565b6000828286611352919061252d565b61135c91906124fc565b90506113688482611c6b565b505b83600660008573ffffffffffffffffffffffffffffffffffffffff1673ffffffffffffffffffffffffffffffffffffffff168152602001908152602001600020546113b591906124a6565b600660008573ffffffffffffffffffffffffffffffffffffffff1673ffffffffffffffffffffffffffffffffffffffff1681526020019081526020016000208190555042600760008573ffffffffffffffffffffffffffffffffffffffff1673ffffffffffffffffffffffffffffffffffffffff16815260200190815260200160002081905550600560019054906101000a900473ffffffffffffffffffffffffffffffffffffffff1673ffffffffffffffffffffffffffffffffffffffff166323b872dd8430876040518463ffffffff1660e01b815260040161149b9392919061223c565b602060405180830381600087803b1580156114b557600080fd5b505af11580156114c9573d6000803e3d6000fd5b505050506040513d601f19601f820116820180604052508101906114ed9190611fa1565b5050505050565b6000611508611501611599565b848461176c565b6001905092915050565b6000600160008473ffffffffffffffffffffffffffffffffffffffff1673ffffffffffffffffffffffffffffffffffffffff16815260200190815260200160002060008373ffffffffffffffffffffffffffffffffffffffff1673ffffffffffffffffffffffffffffffffffffffff16815260200190815260200160002054905092915050565b600033905090565b600073ffffffffffffffffffffffffffffffffffffffff168373ffffffffffffffffffffffffffffffffffffffff161415611611576040517f08c379a000000000000000000000000000000000000000000000000000000000815260040161160890612414565b60405180910390fd5b600073ffffffffffffffffffffffffffffffffffffffff168273ffffffffffffffffffffffffffffffffffffffff161415611681576040517f08c379a000000000000000000000000000000000000000000000000000000000815260040161167890612334565b60405180910390fd5b80600160008573ffffffffffffffffffffffffffffffffffffffff1673ffffffffffffffffffffffffffffffffffffffff16815260200190815260200160002060008473ffffffffffffffffffffffffffffffffffffffff1673ffffffffffffffffffffffffffffffffffffffff168152602001908152602001600020819055508173ffffffffffffffffffffffffffffffffffffffff168373ffffffffffffffffffffffffffffffffffffffff167f8c5be1e5ebec7d5bd14f71427d1e84f3dd0314c0f7b2291e5b200ac8c7c3b9258360405161175f9190612454565b60405180910390a3505050565b600073ffffffffffffffffffffffffffffffffffffffff168373ffffffffffffffffffffffffffffffffffffffff1614156117dc576040517f08c379a00000000000000000000000000000000000000000000000000000000081526004016117d3906123f4565b60405180910390fd5b600073ffffffffffffffffffffffffffffffffffffffff168273ffffffffffffffffffffffffffffffffffffffff16141561184c576040517f08c379a0000000000000000000000000000000000000000000000000000000008152600401611843906122f4565b60405180910390fd5b611857838383611dff565b6118c281604051806060016040528060268152602001612a20602691396000808773ffffffffffffffffffffffffffffffffffffffff1673ffffffffffffffffffffffffffffffffffffffff16815260200190815260200160002054611a019092919063ffffffff16565b6000808573ffffffffffffffffffffffffffffffffffffffff1673ffffffffffffffffffffffffffffffffffffffff16815260200190815260200160002081905550611955816000808573ffffffffffffffffffffffffffffffffffffffff1673ffffffffffffffffffffffffffffffffffffffff16815260200190815260200160002054611a5f90919063ffffffff16565b6000808473ffffffffffffffffffffffffffffffffffffffff1673ffffffffffffffffffffffffffffffffffffffff168152602001908152602001600020819055508173ffffffffffffffffffffffffffffffffffffffff168373ffffffffffffffffffffffffffffffffffffffff167fddf252ad1be2c89b69c2b068fc378daa952ba7f163c4a11628f55a4df523b3ef836040516119f49190612454565b60405180910390a3505050565b6000838311158290611a49576040517f08c379a0000000000000000000000000000000000000000000000000000000008152600401611a4091906122d2565b60405180910390fd5b508284611a569190612587565b90509392505050565b6000808284611a6e91906124a6565b905083811015611ab3576040517f08c379a0000000000000000000000000000000000000000000000000000000008152600401611aaa90612374565b60405180910390fd5b8091505092915050565b600073ffffffffffffffffffffffffffffffffffffffff168273ffffffffffffffffffffffffffffffffffffffff161415611b2d576040517f08c379a0000000000000000000000000000000000000000000000000000000008152600401611b24906123d4565b60405180910390fd5b611b3982600083611dff565b611ba4816040518060600160405280602281526020016129fe602291396000808673ffffffffffffffffffffffffffffffffffffffff1673ffffffffffffffffffffffffffffffffffffffff16815260200190815260200160002054611a019092919063ffffffff16565b6000808473ffffffffffffffffffffffffffffffffffffffff1673ffffffffffffffffffffffffffffffffffffffff16815260200190815260200160002081905550611bfb81600254611e0490919063ffffffff16565b600281905550600073ffffffffffffffffffffffffffffffffffffffff168273ffffffffffffffffffffffffffffffffffffffff167fddf252ad1be2c89b69c2b068fc378daa952ba7f163c4a11628f55a4df523b3ef83604051611c5f9190612454565b60405180910390a35050565b600073ffffffffffffffffffffffffffffffffffffffff168273ffffffffffffffffffffffffffffffffffffffff161415611cdb576040517f08c379a0000000000000000000000000000000000000000000000000000000008152600401611cd290612434565b60405180910390fd5b611ce760008383611dff565b611cfc81600254611a5f90919063ffffffff16565b600281905550611d53816000808573ffffffffffffffffffffffffffffffffffffffff1673ffffffffffffffffffffffffffffffffffffffff16815260200190815260200160002054611a5f90919063ffffffff16565b6000808473ffffffffffffffffffffffffffffffffffffffff1673ffffffffffffffffffffffffffffffffffffffff168152602001908152602001600020819055508173ffffffffffffffffffffffffffffffffffffffff16600073ffffffffffffffffffffffffffffffffffffffff167fddf252ad1be2c89b69c2b068fc378daa952ba7f163c4a11628f55a4df523b3ef83604051611df39190612454565b60405180910390a35050565b505050565b600082821115611e49576040517f08c379a0000000000000000000000000000000000000000000000000000000008152600401611e40906123b4565b60405180910390fd5b8183611e559190612587565b905092915050565b600081359050611e6c816129b8565b92915050565b600081519050611e81816129cf565b92915050565b600081359050611e96816129e6565b92915050565b600081519050611eab816129e6565b92915050565b600060208284031215611ec357600080fd5b6000611ed184828501611e5d565b91505092915050565b60008060408385031215611eed57600080fd5b6000611efb85828601611e5d565b9250506020611f0c85828601611e5d565b9150509250929050565b600080600060608486031215611f2b57600080fd5b6000611f3986828701611e5d565b9350506020611f4a86828701611e5d565b9250506040611f5b86828701611e87565b9150509250925092565b60008060408385031215611f7857600080fd5b6000611f8685828601611e5d565b9250506020611f9785828601611e87565b9150509250929050565b600060208284031215611fb357600080fd5b6000611fc184828501611e72565b91505092915050565b600060208284031215611fdc57600080fd5b6000611fea84828501611e87565b91505092915050565b60006020828403121561200557600080fd5b600061201384828501611e9c565b91505092915050565b612025816125bb565b82525050565b612034816125cd565b82525050565b61204381612610565b82525050565b60006120548261248a565b61205e8185612495565b935061206e818560208601612634565b61207781612726565b840191505092915050565b600061208f602383612495565b915061209a82612737565b604082019050919050565b60006120b2600f83612495565b91506120bd82612786565b602082019050919050565b60006120d5602283612495565b91506120e0826127af565b604082019050919050565b60006120f8602083612495565b9150612103826127fe565b602082019050919050565b600061211b601b83612495565b915061212682612827565b602082019050919050565b600061213e600e83612495565b915061214982612850565b602082019050919050565b6000612161601e83612495565b915061216c82612879565b602082019050919050565b6000612184602183612495565b915061218f826128a2565b604082019050919050565b60006121a7602583612495565b91506121b2826128f1565b604082019050919050565b60006121ca602483612495565b91506121d582612940565b604082019050919050565b60006121ed601f83612495565b91506121f88261298f565b602082019050919050565b61220c816125f9565b82525050565b61221b81612603565b82525050565b6000602082019050612236600083018461201c565b92915050565b6000606082019050612251600083018661201c565b61225e602083018561201c565b61226b6040830184612203565b949350505050565b6000604082019050612288600083018561201c565b6122956020830184612203565b9392505050565b60006020820190506122b1600083018461202b565b92915050565b60006020820190506122cc600083018461203a565b92915050565b600060208201905081810360008301526122ec8184612049565b905092915050565b6000602082019050818103600083015261230d81612082565b9050919050565b6000602082019050818103600083015261232d816120a5565b9050919050565b6000602082019050818103600083015261234d816120c8565b9050919050565b6000602082019050818103600083015261236d816120eb565b9050919050565b6000602082019050818103600083015261238d8161210e565b9050919050565b600060208201905081810360008301526123ad81612131565b9050919050565b600060208201905081810360008301526123cd81612154565b9050919050565b600060208201905081810360008301526123ed81612177565b9050919050565b6000602082019050818103600083015261240d8161219a565b9050919050565b6000602082019050818103600083015261242d816121bd565b9050919050565b6000602082019050818103600083015261244d816121e0565b9050919050565b60006020820190506124696000830184612203565b92915050565b60006020820190506124846000830184612212565b92915050565b600081519050919050565b600082825260208201905092915050565b60006124b1826125f9565b91506124bc836125f9565b9250827fffffffffffffffffffffffffffffffffffffffffffffffffffffffffffffffff038211156124f1576124f0612699565b5b828201905092915050565b6000612507826125f9565b9150612512836125f9565b925082612522576125216126c8565b5b828204905092915050565b6000612538826125f9565b9150612543836125f9565b9250817fffffffffffffffffffffffffffffffffffffffffffffffffffffffffffffffff048311821515161561257c5761257b612699565b5b828202905092915050565b6000612592826125f9565b915061259d836125f9565b9250828210156125b0576125af612699565b5b828203905092915050565b60006125c6826125d9565b9050919050565b60008115159050919050565b600073ffffffffffffffffffffffffffffffffffffffff82169050919050565b6000819050919050565b600060ff82169050919050565b600061261b82612622565b9050919050565b600061262d826125d9565b9050919050565b60005b83811015612652578082015181840152602081019050612637565b83811115612661576000848401525b50505050565b6000600282049050600182168061267f57607f821691505b60208210811415612693576126926126f7565b5b50919050565b7f4e487b7100000000000000000000000000000000000000000000000000000000600052601160045260246000fd5b7f4e487b7100000000000000000000000000000000000000000000000000000000600052601260045260246000fd5b7f4e487b7100000000000000000000000000000000000000000000000000000000600052602260045260246000fd5b6000601f19601f8301169050919050565b7f45524332303a207472616e7366657220746f20746865207a65726f206164647260008201527f6573730000000000000000000000000000000000000000000000000000000000602082015250565b7f55736572206e6f74207374616b65640000000000000000000000000000000000600082015250565b7f45524332303a20617070726f766520746f20746865207a65726f20616464726560008201527f7373000000000000000000000000000000000000000000000000000000000000602082015250565b7f43616e6e6f7420626520756e7374616b6564206265666f726520322064617973600082015250565b7f536166654d6174683a206164646974696f6e206f766572666c6f770000000000600082015250565b7f496e76616c696420416d6f756e74000000000000000000000000000000000000600082015250565b7f536166654d6174683a207375627472616374696f6e206f766572666c6f770000600082015250565b7f45524332303a206275726e2066726f6d20746865207a65726f2061646472657360008201527f7300000000000000000000000000000000000000000000000000000000000000602082015250565b7f45524332303a207472616e736665722066726f6d20746865207a65726f20616460008201527f6472657373000000000000000000000000000000000000000000000000000000602082015250565b7f45524332303a20617070726f76652066726f6d20746865207a65726f2061646460008201527f7265737300000000000000000000000000000000000000000000000000000000602082015250565b7f45524332303a206d696e7420746f20746865207a65726f206164647265737300600082015250565b6129c1816125bb565b81146129cc57600080fd5b50565b6129d8816125cd565b81146129e357600080fd5b50565b6129ef816125f9565b81146129fa57600080fd5b5056fe45524332303a206275726e20616d6f756e7420657863656564732062616c616e636545524332303a207472616e7366657220616d6f756e7420657863656564732062616c616e636545524332303a207472616e7366657220616d6f756e74206578636565647320616c6c6f77616e636545524332303a2064656372656173656420616c6c6f77616e63652062656c6f77207a65726fa26469706673582212201a2479e7b82fd0d34391b9c1414c7ecf733d4616cfd9c1131a9f0c3f220b100664736f6c63430008040033",
  "linkReferences": {},
  "deployedLinkReferences": {}
}