{
  "_format": "hh-sol-artifact-1",
  "contractName": "SushiToken",
  "sourceName": "contracts/SushiToken.sol",
  "abi": [
    {
      "inputs": [],
      "stateMutability": "nonpayable",
      "type": "constructor"
    },
    {
      "anonymous": false,
      "inputs": [
        {
          "indexed": true,
          "internalType": "address",
          "name": "owner",
          "type": "address"
        },
        {
          "indexed": true,
          "internalType": "address",
          "name": "spender",
          "type": "address"
        },
        {
          "indexed": false,
          "internalType": "uint256",
          "name": "value",
          "type": "uint256"
        }
      ],
      "name": "Approval",
      "type": "event"
    },
    {
      "anonymous": false,
      "inputs": [
        {
          "indexed": true,
          "internalType": "address",
          "name": "from",
          "type": "address"
        },
        {
          "indexed": true,
          "internalType": "address",
          "name": "to",
          "type": "address"
        },
        {
          "indexed": false,
          "internalType": "uint256",
          "name": "value",
          "type": "uint256"
        }
      ],
      "name": "Transfer",
      "type": "event"
    },
    {
      "inputs": [
        {
          "internalType": "address",
          "name": "owner",
          "type": "address"
        },
        {
          "internalType": "address",
          "name": "spender",
          "type": "address"
        }
      ],
      "name": "allowance",
      "outputs": [
        {
          "internalType": "uint256",
          "name": "",
          "type": "uint256"
        }
      ],
      "stateMutability": "view",
      "type": "function"
    },
    {
      "inputs": [
        {
          "internalType": "address",
          "name": "spender",
          "type": "address"
        },
        {
          "internalType": "uint256",
          "name": "amount",
          "type": "uint256"
        }
      ],
      "name": "approve",
      "outputs": [
        {
          "internalType": "bool",
          "name": "",
          "type": "bool"
        }
      ],
      "stateMutability": "nonpayable",
      "type": "function"
    },
    {
      "inputs": [
        {
          "internalType": "address",
          "name": "account",
          "type": "address"
        }
      ],
      "name": "balanceOf",
      "outputs": [
        {
          "internalType": "uint256",
          "name": "",
          "type": "uint256"
        }
      ],
      "stateMutability": "view",
      "type": "function"
    },
    {
      "inputs": [],
      "name": "decimals",
      "outputs": [
        {
          "internalType": "uint8",
          "name": "",
          "type": "uint8"
        }
      ],
      "stateMutability": "view",
      "type": "function"
    },
    {
      "inputs": [
        {
          "internalType": "address",
          "name": "spender",
          "type": "address"
        },
        {
          "internalType": "uint256",
          "name": "subtractedValue",
          "type": "uint256"
        }
      ],
      "name": "decreaseAllowance",
      "outputs": [
        {
          "internalType": "bool",
          "name": "",
          "type": "bool"
        }
      ],
      "stateMutability": "nonpayable",
      "type": "function"
    },
    {
      "inputs": [
        {
          "internalType": "address",
          "name": "spender",
          "type": "address"
        },
        {
          "internalType": "uint256",
          "name": "addedValue",
          "type": "uint256"
        }
      ],
      "name": "increaseAllowance",
      "outputs": [
        {
          "internalType": "bool",
          "name": "",
          "type": "bool"
        }
      ],
      "stateMutability": "nonpayable",
      "type": "function"
    },
    {
      "inputs": [
        {
          "internalType": "uint256",
          "name": "amount",
          "type": "uint256"
        }
      ],
      "name": "mint",
      "outputs": [],
      "stateMutability": "nonpayable",
      "type": "function"
    },
    {
      "inputs": [],
      "name": "name",
      "outputs": [
        {
          "internalType": "string",
          "name": "",
          "type": "string"
        }
      ],
      "stateMutability": "view",
      "type": "function"
    },
    {
      "inputs": [],
      "name": "symbol",
      "outputs": [
        {
          "internalType": "string",
          "name": "",
          "type": "string"
        }
      ],
      "stateMutability": "view",
      "type": "function"
    },
    {
      "inputs": [],
      "name": "totalSupply",
      "outputs": [
        {
          "internalType": "uint256",
          "name": "",
          "type": "uint256"
        }
      ],
      "stateMutability": "view",
      "type": "function"
    },
    {
      "inputs": [
        {
          "internalType": "address",
          "name": "recipient",
          "type": "address"
        },
        {
          "internalType": "uint256",
          "name": "amount",
          "type": "uint256"
        }
      ],
      "name": "transfer",
      "outputs": [
        {
          "internalType": "bool",
          "name": "",
          "type": "bool"
        }
      ],
      "stateMutability": "nonpayable",
      "type": "function"
    },
    {
      "inputs": [
        {
          "internalType": "address",
          "name": "sender",
          "type": "address"
        },
        {
          "internalType": "address",
          "name": "recipient",
          "type": "address"
        },
        {
          "internalType": "uint256",
          "name": "amount",
          "type": "uint256"
        }
      ],
      "name": "transferFrom",
      "outputs": [
        {
          "internalType": "bool",
          "name": "",
          "type": "bool"
        }
      ],
      "stateMutability": "nonpayable",
      "type": "function"
    }
  ],
  "bytecode": "0x60806040523480156200001157600080fd5b506040518060400160405280600d81526020017f4e6f7468696e6720546f6b656e000000000000000000000000000000000000008152506040518060400160405280600381526020017f4e54470000000000000000000000000000000000000000000000000000000000815250816003908051906020019062000096929190620000d4565b508060049080519060200190620000af929190620000d4565b506012600560006101000a81548160ff021916908360ff1602179055505050620001e9565b828054620000e29062000184565b90600052602060002090601f01602090048101928262000106576000855562000152565b82601f106200012157805160ff191683800117855562000152565b8280016001018555821562000152579182015b828111156200015157825182559160200191906001019062000134565b5b50905062000161919062000165565b5090565b5b808211156200018057600081600090555060010162000166565b5090565b600060028204905060018216806200019d57607f821691505b60208210811415620001b457620001b3620001ba565b5b50919050565b7f4e487b7100000000000000000000000000000000000000000000000000000000600052602260045260246000fd5b6117eb80620001f96000396000f3fe608060405234801561001057600080fd5b50600436106100b45760003560e01c806370a082311161007157806370a08231146101a357806395d89b41146101d3578063a0712d68146101f1578063a457c2d71461020d578063a9059cbb1461023d578063dd62ed3e1461026d576100b4565b806306fdde03146100b9578063095ea7b3146100d757806318160ddd1461010757806323b872dd14610125578063313ce567146101555780633950935114610173575b600080fd5b6100c161029d565b6040516100ce91906110c7565b60405180910390f35b6100f160048036038101906100ec9190610f0f565b61032f565b6040516100fe91906110ac565b60405180910390f35b61010f61034d565b60405161011c91906111a9565b60405180910390f35b61013f600480360381019061013a9190610ec0565b610357565b60405161014c91906110ac565b60405180910390f35b61015d610430565b60405161016a91906111c4565b60405180910390f35b61018d60048036038101906101889190610f0f565b610447565b60405161019a91906110ac565b60405180910390f35b6101bd60048036038101906101b89190610e5b565b6104fa565b6040516101ca91906111a9565b60405180910390f35b6101db610542565b6040516101e891906110c7565b60405180910390f35b61020b60048036038101906102069190610f4b565b6105d4565b005b61022760048036038101906102229190610f0f565b610602565b60405161023491906110ac565b60405180910390f35b61025760048036038101906102529190610f0f565b6106cf565b60405161026491906110ac565b60405180910390f35b61028760048036038101906102829190610e84565b6106ed565b60405161029491906111a9565b60405180910390f35b6060600380546102ac906114d8565b80601f01602080910402602001604051908101604052809291908181526020018280546102d8906114d8565b80156103255780601f106102fa57610100808354040283529160200191610325565b820191906000526020600020905b81548152906001019060200180831161030857829003601f168201915b5050505050905090565b600061034361033c610774565b848461077c565b6001905092915050565b6000600254905090565b6000610364848484610947565b61042584610370610774565b6104208560405180606001604052806028815260200161176960289139600160008b73ffffffffffffffffffffffffffffffffffffffff1673ffffffffffffffffffffffffffffffffffffffff16815260200190815260200160002060006103d6610774565b73ffffffffffffffffffffffffffffffffffffffff1673ffffffffffffffffffffffffffffffffffffffff16815260200190815260200160002054610bdc9092919063ffffffff16565b61077c565b600190509392505050565b6000600560009054906101000a900460ff16905090565b60006104f0610454610774565b846104eb8560016000610465610774565b73ffffffffffffffffffffffffffffffffffffffff1673ffffffffffffffffffffffffffffffffffffffff16815260200190815260200160002060008973ffffffffffffffffffffffffffffffffffffffff1673ffffffffffffffffffffffffffffffffffffffff16815260200190815260200160002054610c3a90919063ffffffff16565b61077c565b6001905092915050565b60008060008373ffffffffffffffffffffffffffffffffffffffff1673ffffffffffffffffffffffffffffffffffffffff168152602001908152602001600020549050919050565b606060048054610551906114d8565b80601f016020809104026020016040519081016040528092919081815260200182805461057d906114d8565b80156105ca5780601f1061059f576101008083540402835291602001916105ca565b820191906000526020600020905b8154815290600101906020018083116105ad57829003601f168201915b5050505050905090565b6105ff336105e0610430565b60ff16600a6105ef91906112a4565b836105fa91906113c2565b610c98565b50565b60006106c561060f610774565b846106c0856040518060600160405280602581526020016117916025913960016000610639610774565b73ffffffffffffffffffffffffffffffffffffffff1673ffffffffffffffffffffffffffffffffffffffff16815260200190815260200160002060008a73ffffffffffffffffffffffffffffffffffffffff1673ffffffffffffffffffffffffffffffffffffffff16815260200190815260200160002054610bdc9092919063ffffffff16565b61077c565b6001905092915050565b60006106e36106dc610774565b8484610947565b6001905092915050565b6000600160008473ffffffffffffffffffffffffffffffffffffffff1673ffffffffffffffffffffffffffffffffffffffff16815260200190815260200160002060008373ffffffffffffffffffffffffffffffffffffffff1673ffffffffffffffffffffffffffffffffffffffff16815260200190815260200160002054905092915050565b600033905090565b600073ffffffffffffffffffffffffffffffffffffffff168373ffffffffffffffffffffffffffffffffffffffff1614156107ec576040517f08c379a00000000000000000000000000000000000000000000000000000000081526004016107e390611169565b60405180910390fd5b600073ffffffffffffffffffffffffffffffffffffffff168273ffffffffffffffffffffffffffffffffffffffff16141561085c576040517f08c379a000000000000000000000000000000000000000000000000000000000815260040161085390611109565b60405180910390fd5b80600160008573ffffffffffffffffffffffffffffffffffffffff1673ffffffffffffffffffffffffffffffffffffffff16815260200190815260200160002060008473ffffffffffffffffffffffffffffffffffffffff1673ffffffffffffffffffffffffffffffffffffffff168152602001908152602001600020819055508173ffffffffffffffffffffffffffffffffffffffff168373ffffffffffffffffffffffffffffffffffffffff167f8c5be1e5ebec7d5bd14f71427d1e84f3dd0314c0f7b2291e5b200ac8c7c3b9258360405161093a91906111a9565b60405180910390a3505050565b600073ffffffffffffffffffffffffffffffffffffffff168373ffffffffffffffffffffffffffffffffffffffff1614156109b7576040517f08c379a00000000000000000000000000000000000000000000000000000000081526004016109ae90611149565b60405180910390fd5b600073ffffffffffffffffffffffffffffffffffffffff168273ffffffffffffffffffffffffffffffffffffffff161415610a27576040517f08c379a0000000000000000000000000000000000000000000000000000000008152600401610a1e906110e9565b60405180910390fd5b610a32838383610e2c565b610a9d81604051806060016040528060268152602001611743602691396000808773ffffffffffffffffffffffffffffffffffffffff1673ffffffffffffffffffffffffffffffffffffffff16815260200190815260200160002054610bdc9092919063ffffffff16565b6000808573ffffffffffffffffffffffffffffffffffffffff1673ffffffffffffffffffffffffffffffffffffffff16815260200190815260200160002081905550610b30816000808573ffffffffffffffffffffffffffffffffffffffff1673ffffffffffffffffffffffffffffffffffffffff16815260200190815260200160002054610c3a90919063ffffffff16565b6000808473ffffffffffffffffffffffffffffffffffffffff1673ffffffffffffffffffffffffffffffffffffffff168152602001908152602001600020819055508173ffffffffffffffffffffffffffffffffffffffff168373ffffffffffffffffffffffffffffffffffffffff167fddf252ad1be2c89b69c2b068fc378daa952ba7f163c4a11628f55a4df523b3ef83604051610bcf91906111a9565b60405180910390a3505050565b6000838311158290610c24576040517f08c379a0000000000000000000000000000000000000000000000000000000008152600401610c1b91906110c7565b60405180910390fd5b508284610c31919061141c565b90509392505050565b6000808284610c4991906111fb565b905083811015610c8e576040517f08c379a0000000000000000000000000000000000000000000000000000000008152600401610c8590611129565b60405180910390fd5b8091505092915050565b600073ffffffffffffffffffffffffffffffffffffffff168273ffffffffffffffffffffffffffffffffffffffff161415610d08576040517f08c379a0000000000000000000000000000000000000000000000000000000008152600401610cff90611189565b60405180910390fd5b610d1460008383610e2c565b610d2981600254610c3a90919063ffffffff16565b600281905550610d80816000808573ffffffffffffffffffffffffffffffffffffffff1673ffffffffffffffffffffffffffffffffffffffff16815260200190815260200160002054610c3a90919063ffffffff16565b6000808473ffffffffffffffffffffffffffffffffffffffff1673ffffffffffffffffffffffffffffffffffffffff168152602001908152602001600020819055508173ffffffffffffffffffffffffffffffffffffffff16600073ffffffffffffffffffffffffffffffffffffffff167fddf252ad1be2c89b69c2b068fc378daa952ba7f163c4a11628f55a4df523b3ef83604051610e2091906111a9565b60405180910390a35050565b505050565b600081359050610e4081611714565b92915050565b600081359050610e558161172b565b92915050565b600060208284031215610e6d57600080fd5b6000610e7b84828501610e31565b91505092915050565b60008060408385031215610e9757600080fd5b6000610ea585828601610e31565b9250506020610eb685828601610e31565b9150509250929050565b600080600060608486031215610ed557600080fd5b6000610ee386828701610e31565b9350506020610ef486828701610e31565b9250506040610f0586828701610e46565b9150509250925092565b60008060408385031215610f2257600080fd5b6000610f3085828601610e31565b9250506020610f4185828601610e46565b9150509250929050565b600060208284031215610f5d57600080fd5b6000610f6b84828501610e46565b91505092915050565b610f7d81611462565b82525050565b6000610f8e826111df565b610f9881856111ea565b9350610fa88185602086016114a5565b610fb181611568565b840191505092915050565b6000610fc96023836111ea565b9150610fd482611586565b604082019050919050565b6000610fec6022836111ea565b9150610ff7826115d5565b604082019050919050565b600061100f601b836111ea565b915061101a82611624565b602082019050919050565b60006110326025836111ea565b915061103d8261164d565b604082019050919050565b60006110556024836111ea565b91506110608261169c565b604082019050919050565b6000611078601f836111ea565b9150611083826116eb565b602082019050919050565b6110978161148e565b82525050565b6110a681611498565b82525050565b60006020820190506110c16000830184610f74565b92915050565b600060208201905081810360008301526110e18184610f83565b905092915050565b6000602082019050818103600083015261110281610fbc565b9050919050565b6000602082019050818103600083015261112281610fdf565b9050919050565b6000602082019050818103600083015261114281611002565b9050919050565b6000602082019050818103600083015261116281611025565b9050919050565b6000602082019050818103600083015261118281611048565b9050919050565b600060208201905081810360008301526111a28161106b565b9050919050565b60006020820190506111be600083018461108e565b92915050565b60006020820190506111d9600083018461109d565b92915050565b600081519050919050565b600082825260208201905092915050565b60006112068261148e565b91506112118361148e565b9250827fffffffffffffffffffffffffffffffffffffffffffffffffffffffffffffffff038211156112465761124561150a565b5b828201905092915050565b6000808291508390505b600185111561129b578086048111156112775761127661150a565b5b60018516156112865780820291505b808102905061129485611579565b945061125b565b94509492505050565b60006112af8261148e565b91506112ba8361148e565b92506112e77fffffffffffffffffffffffffffffffffffffffffffffffffffffffffffffffff84846112ef565b905092915050565b6000826112ff57600190506113bb565b8161130d57600090506113bb565b8160018114611323576002811461132d5761135c565b60019150506113bb565b60ff84111561133f5761133e61150a565b5b8360020a9150848211156113565761135561150a565b5b506113bb565b5060208310610133831016604e8410600b84101617156113915782820a90508381111561138c5761138b61150a565b5b6113bb565b61139e8484846001611251565b925090508184048111156113b5576113b461150a565b5b81810290505b9392505050565b60006113cd8261148e565b91506113d88361148e565b9250817fffffffffffffffffffffffffffffffffffffffffffffffffffffffffffffffff04831182151516156114115761141061150a565b5b828202905092915050565b60006114278261148e565b91506114328361148e565b9250828210156114455761144461150a565b5b828203905092915050565b600061145b8261146e565b9050919050565b60008115159050919050565b600073ffffffffffffffffffffffffffffffffffffffff82169050919050565b6000819050919050565b600060ff82169050919050565b60005b838110156114c35780820151818401526020810190506114a8565b838111156114d2576000848401525b50505050565b600060028204905060018216806114f057607f821691505b6020821081141561150457611503611539565b5b50919050565b7f4e487b7100000000000000000000000000000000000000000000000000000000600052601160045260246000fd5b7f4e487b7100000000000000000000000000000000000000000000000000000000600052602260045260246000fd5b6000601f19601f8301169050919050565b60008160011c9050919050565b7f45524332303a207472616e7366657220746f20746865207a65726f206164647260008201527f6573730000000000000000000000000000000000000000000000000000000000602082015250565b7f45524332303a20617070726f766520746f20746865207a65726f20616464726560008201527f7373000000000000000000000000000000000000000000000000000000000000602082015250565b7f536166654d6174683a206164646974696f6e206f766572666c6f770000000000600082015250565b7f45524332303a207472616e736665722066726f6d20746865207a65726f20616460008201527f6472657373000000000000000000000000000000000000000000000000000000602082015250565b7f45524332303a20617070726f76652066726f6d20746865207a65726f2061646460008201527f7265737300000000000000000000000000000000000000000000000000000000602082015250565b7f45524332303a206d696e7420746f20746865207a65726f206164647265737300600082015250565b61171d81611450565b811461172857600080fd5b50565b6117348161148e565b811461173f57600080fd5b5056fe45524332303a207472616e7366657220616d6f756e7420657863656564732062616c616e636545524332303a207472616e7366657220616d6f756e74206578636565647320616c6c6f77616e636545524332303a2064656372656173656420616c6c6f77616e63652062656c6f77207a65726fa26469706673582212201eb947484c14f6fb238386ea387ac32f3b91ba7eea42fbb4e4bda3bd7797309064736f6c63430008040033",
  "linkReferences": {},
  "deployedLinkReferences": {}
}